:100000000C94CC060C9413070C9413070C94130750
:100010000C9413070C9413070C9413070C941307F8
:100020000C9413070C9413070C944D210C9420226C
:100030000C94B9180C9413070C9413070C94130721
:100040000C9413070C9413070C9413070C941307C8
:100050000C9413070C9421190C9413070C94130798
:100060000C9413070C9413070C9413070C941307A8
:100070000C9413070C9413070C9413070C94130798
:100080000C9413070C9413070C9413070C94130788
:100090000C9413070C9413070C9413070C94130778
:1000A0000C9413070C9413070C94130729001E00DB
:1000B0001F0020002100220023002400250026002C
:1000C00027002D002E002A0001532E0038002502A3
:1000D00000002B0014001A000800150017001C0077
:1000E00018000C00120013002F003000240025001F
:1000F00026002D000000E0000400160007000900A3
:100100000A000B000D000E000F0033003400280021
:100110002100220023002E020000E1001D001B0030
:1001200006001900050011001000360037003800E5
:10013000015152001E001F00200000000000E200DC
:10014000E30000002C0000000000000000000000A0
:10015000310050004F0051000000270037002800F8
:1001600035003A003B003C003D003E003F004000AF
:1001700041004200430044004500010001000251DB
:100180000100010000000100010001000100010068
:100190000100010001000100010001000100010057
:1001A0000100010001000100000001000100010048
:1001B0000100010001000100010001000100010037
:1001C00001000100010052000100010000000100D7
:1001D0000100010001000100010001000100010017
:1001E0000100010001000100500051004F0000001B
:1001F00000000100010000000100000000000000FC
:1002000000000000010001000100010000000100E9
:1002100001000100000001000100010001000100D7
:1002200001000100010001000100010001000100C6
:1002300001000100010001000000010001000100B7
:100240000100007001000100010001000100010037
:100250000100010001000100010001000000010097
:100260000100010001000100010001000100010086
:100270000100010001000100010001000100010076
:100280000000010001000100010001000100010067
:100290000100010001000100010001000100010056
:1002A000010000000000010001000000010000004A
:1002B000000000000000000001000100010001003A
:1002C0000000010001000100010001000100010027
:1002D0000100010001000100010001000100010016
:1002E0000100010001000100010001000000010007
:1002F00001000100010001000100010001000100F6
:1003000001000100010001000100010001000100E5
:1003100000000100010001000100010001000100D6
:1003200001000100010001000100010001000100C5
:1003300001000100000001000100010001000100B6
:1003400001000100010001000100010001000100A5
:100350000100010001000000000001000100000098
:10036000010000000000000000000000010001008A
:100370000100010000000100010001000100010076
:100380000100010001000100010001000100010065
:100390000100010001000100010001000100010055
:1003A0000000010001000100010001000100010046
:1003B0000100010001000100010001000100010035
:1003C0000100010000000100010001000100010026
:1003D0000100010001000100010001000100010015
:1003E0000100010001000100000001000100010006
:1003F00001000100010001000100010001000100F5
:1004000001000100010001000100000000000100E6
:1004100001000000010000000000000000000000DA
:1004200001000100010001000000010001000100C5
:1004300001000100010001000100010001000100B4
:1004400001000100010001000100010001000100A4
:100450000100010000000100010001000100010095
:100460000100010001000100010001000100010084
:100470000100010001000100000001000100010075
:100480000100010001000100010001000100010064
:100490000100010001000100010001000000010055
:1004A0000100010001000100010001000100010044
:1004B0000100010001000100010001000100000035
:1004C0000000010001000000010000000000000029
:1004D0000000000001000100010001000000010017
:1004E0000100010001000100010001000100010004
:1004F00001000100010001000100010001000100F4
:1005000001000100010001000000010001000100E4
:1005100001000100010001000100010001000100D3
:1005200001000100010001000100010000000100C4
:1005300001000100010001000100010001000100B3
:1005400001000100010001000100010001000100A3
:100550000000010001000100010001000100010094
:100560000100010001000100010001000100010083
:100570000100000000000100010000000100000077
:100580000000000000000000010001000100010067
:100590000000010001000100010001000100010054
:1005A0000100010001000100010001000100010043
:1005B0000100010001000100010001000000010034
:1005C0000100010001000100010001000100010023
:1005D0000100010001000100010001000100010013
:1005E0000000010001000100010001000100010004
:1005F00001000100010001000100010001000100F3
:1006000001000100000001000100010001000100E3
:1006100001000100010001000100010001000100D2
:1006200001000100010000000000010001000000C5
:1006300001000000000000000000000001000100B7
:1006400001000100000001000100010001000100A3
:100650000100010001000100010001000100010092
:100660000100010001000100010001000100010082
:100670000000010001000100010001000100010073
:100680000100010001000100010001000100010062
:100690000100010000000100010001000100010053
:1006A0000100010001000100010001000100010042
:1006B0000100010001000100000001000100010033
:1006C0000100010001000100010001000100010022
:1006D0000100010001000100010000000000010014
:1006E0000100000001000000000000000000000008
:1006F00001000100010001000000010001000100F3
:1007000001000100010001000100010001000100E1
:1007100001000100010001000100010001000100D1
:1007200001000100000001000100010001000100C2
:1007300001000100010001000100010001000100B1
:1007400001000100010001000000010001000100A2
:100750000100010001000100010001000100010091
:100760000100010001000100010001000000010082
:100770000100010001000100010001000100010071
:100780000100010001000100010001000100000062
:100790000000010001000000010000000000000056
:1007A0000000000001000100010001000000010044
:1007B0000100010001000100010001000100010031
:1007C0000100010001000100010001000100010021
:1007D0000100010001000100000001000100010012
:1007E0000100010001000100010001000100010001
:1007F00001000100010001000100010000000100F2
:1008000001000100010001000100010001000100E0
:1008100001000100010001000100010001000100D0
:1008200000000100010001000100010001000100C1
:1008300001000100010001000100010001000100B0
:1008400001000000000001000100000001000000A4
:100850000000000000000000010001000100010094
:100860000000010001000100010001000100010081
:100870000100010001000100010001000100010070
:100880000100010001000100010001000000010061
:100890000100010001000100010001000100010050
:1008A0000100010001000100010001000100010040
:1008B0000000010001000100010001000100010031
:1008C0000100010001000100010001000100010020
:1008D0000100010000000100010001000100010011
:1008E0000100010001000100010001000100010000
:1008F00001000100010000000000010001000000F3
:1009000001000000000000000000000001000100E4
:1009100001000100000001000100010001000100D0
:1009200001000100010001000100010001000100BF
:1009300001000100010001000100010001000100AF
:1009400000000100010001000100010001000100A0
:10095000010001000100010001000100010001008F
:100960000100010000000100010001000100010080
:10097000010001000100010001000100010001006F
:100980000100010001000100000001000100010060
:10099000010001000100010001000100010001004F
:1009A0000100010001000100010000000000010041
:1009B0000100000001000000000000000000000035
:1009C0000100010001000100000001000100010020
:1009D000010001000100010001000100010001000F
:1009E00001000100010001000100010001000100FF
:1009F00001000100000001000100010001000100F0
:100A000001000100010001000100010001000100DE
:100A100001000100010001000000010001000100CF
:100A200001000100010001000100010001000100BE
:100A300001000100010001000100010000000100AF
:100A4000010001000100010001000100010001009E
:100A5000010001000100010001000100010000008F
:100A60000000010001000000010000000000000083
:100A70000000000001000100010001000000010071
:100A8000010001000100010001000100010001005E
:100A9000010001000100010001000100010001004E
:100AA000010001000100010000000100010001003F
:100AB000010001000100010001000100010001002E
:100AC000010001000100010001000100000001001F
:100AD000010001000100010001000100010001000E
:100AE00001000100010001000100010001000100FE
:100AF00000000100010001000100010001000100EF
:100B000001000100010001000100010001000100DD
:100B100001000000000001000100000001000000D1
:100B200000000000000000000100010001000100C1
:100B300000000100010001000100010001000100AE
:100B4000010001000100010001000100010001009D
:100B5000010001000100010001000100000001008E
:100B6000010001000100010001000100010001007D
:100B7000010001000100010001000100010001006D
:100B8000000001000100010001000100010001005E
:100B9000010001000100010001000100010001004D
:100BA000010001000000010001000100010001003E
:100BB000010001000100010001000100010001002D
:100BC0000100010001000000000001000100000020
:100BD0000100000000000000000000000100010012
:100BE00001000100000001000100010012036B0080
:100BF0006500790062006F0061007200640000000F
:100C0000160371006D006B006200750069006C00D6
:100C100064006500720000000403090409026D000D
:100C2000040100A0FA0904000001030101000921E8
:100C3000110100012240000705810308000A090490
:100C400001000103010200092111010001224D00F0
:100C50000705820308000A090402000103000000DE
:100C60000921110100012236000705830308000A4B
:100C70000904030001030000000921110100012201
:100C80003900070584032000011201100100000053
:100C900008EDFE606001000102000105010906A1E6
:100CA00001050719E029E71500250195087501815F
:100CB000020508190129059505750191029501752F
:100CC0000391010507190029F71500250195F8750D
:100CD000018102C005010980A101850216010026DB
:100CE00003001A81002A8300751095018100C00558
:100CF0000C0901A1018503160100269C021A0100BE
:100D00002A9C02751095018100C005010902A1010C
:100D10000901A100050919012905150025019505FD
:100D200075018102950175038101050109300931C1
:100D30001581257F95027508810609381581257F63
:100D4000950175088106050C0A38021581257F95E5
:100D50000175088106C0C005010906A10105071932
:100D6000E029E715002501950875018102950175B7
:100D7000088101050819012905950575019102955C
:100D800001750391010507190029FF150026FF00D1
:100D9000950675088100C00011241FBECFEFDAE070
:100DA000DEBFCDBF04B603FE27C0809178029091CC
:100DB0007902A0917A02B0917B028730904BA740D4
:100DC000B04BD1F4109278021092790210927A020C
:100DD00010927B0214BE84B7877F84BF0FB6F8944D
:100DE000A8958091600088618093600010926000F7
:100DF0000FBEE0E0F8E3099511E0A0E0B1E0E8EC17
:100E0000FAE402C005900D92AE33B107D9F722E0A3
:100E1000AEE3B1E001C01D92A837B207E1F70E942E
:100E20009C1E0C9462250C94000090E080E00895D4
:100E30000895089581E00895089581E008950C943F
:100E40001A070E9430112FEF84E39CE0215080406C
:100E50009040E1F700C000000C944619FF920F93F8
:100E60001F93CF93DF938C01FC01C081D1818091CE
:100E7000960181113FC082818823B9F1CE010E9481
:100E80009716F82E682FCE010E943D16BE018F2DB9
:100E90000E947508EC01B8010E941F07882309F41D
:100EA0004AC0B801CE010E94850A882309F443C0D4
:100EB000C531F0E7DF0718F5C23080E7D80708F042
:100EC0004BC0C115E0E7DE0789F1C130D047D1F151
:100ED00081E08093400180934101C801DF91CF916F
:100EE0001F910F91FF900C941D07CE010E946C166C
:100EF000F82ECCCFCE010E949716BE01C9CFCC33BD
:100F000080E7D80709F4ACC0CD33D04709F7F80122
:100F10008281882309F4CBC0109241010E94EB1812
:100F200090933F0180933E0180E2A7C0F801828147
:100F300081110E94210780E0DF91CF911F910F91D5
:100F4000FF900895F80182818823A9F380913802E7
:100F5000816080933802EFCFF8018281882309F401
:100F6000BCCF0E944818811102C00E942E180E9416
:100F7000651890E090936A0280936902FE01E35045
:100F8000F047809169028160E231F105C8F4E553D0
:100F9000F84F0C941225DD07E907ED07F107F50777
:100FA000F907FD070108050809080D0811081508CB
:100FB00019081D0821082508290880916902826006
:100FC00080936902809169020E9469180E94301121
:100FD000B2CF809169028460F3CF8091690288600A
:100FE000EFCF809169028061EBCF809169028062CE
:100FF000E7CF809169028064E3CF809169028068C5
:10100000DFCF809169028460EACF809169028E7F90
:10101000D7CF809169028D7FD3CF809169028B7F7A
:10102000CFCF80916902877FCBCF809169028F7E7D
:10103000C7CF809169028F7DC3CF809169028F7B7A
:10104000BFCF809169028F77BBCF809169028B7F80
:10105000EACF90916902892F97FB87F98058B0CF2A
:10106000F8018281882361F0109240010E94EB1800
:1010700090933F0180933E0182E00E94BA0E5BCFC5
:101080008091400181110FC080913E0190913F01FC
:101090000E94F718883C910530F486E20E948F0D7B
:1010A00086E20E946B0E82E00E94C10E44CF8091C6
:1010B000410181110FC080913E0190913F010E943A
:1010C000F718883C910530F487E20E948F0D87E283
:1010D0000E946B0E80E2E8CF0C94D40A0C94D60ADE
:1010E0000C941C070C9470080895972F70E022E16F
:1010F000929F600D711D1124FB019AE5899FE00DFF
:10110000F11D1124EE0FFF1FE455FF4F85919491BF
:101110000895FC01EE0FFF1FE451F44F8591949167
:1011200008950E9475080E94040A811520E4920720
:1011300008F08DC0811540E3940708F0E8C0803EB8
:10114000910508F071C0803C910508F0CCC0883A48
:10115000910580F4853A910508F0CAC08130910567
:1011600009F46EC020F08430910508F069C090E069
:1011700080E008958D3B9105D0F7883A910509F4F8
:1011800004C1893A910509F403C18A3A910509F429
:1011900002C18B3A910509F401C18C3A910509F419
:1011A00000C18B3B910509F4FFC08C3B910509F40C
:1011B000FEC08D3A910509F4FDC0803B910509F40C
:1011C000FCC08E3A910509F4FBC08F3A910509F4F1
:1011D000FAC0813B910509F4F9C0823B910509F4FD
:1011E000F8C0833B910509F4F7C0843B910509F4ED
:1011F000F6C0853B910509F4F5C0863B910509F4DD
:10120000F4C0873B910509F4F3C0883B910509F4CC
:10121000F2C0893B910509F4F1C08A3B910509F4BC
:10122000F0C080E094E408958F3F910509F048F400
:10123000803F910508F067C0883E910508F097CF80
:101240000895811520E2920708F05FC00895811586
:1012500043E5940760F5811522E5920708F062C026
:10126000811541E5940708F058C0811520E59207E3
:1012700008F450C09C0154E0369527955A95E1F743
:10128000922F9370482F437021E030E002C0220F6C
:10129000331F4A95E2F73C68392B86958695837013
:1012A00040E2849FC0011124822B932B0895811565
:1012B00045E5940750F4811524E5920708F446C0EB
:1012C000982F8827846F906A0895811546E59407C2
:1012D00008F450C09C0130569F702115304108F031
:1012E00046CF90620895805C91090E948908089514
:1012F000853A910509F443C0863A910509F042C048
:1013000082E890E40895906508959F70EECF992744
:10131000906C08959F70906A0895982F8827816F28
:10132000906A0895AC014370552721E030E002C077
:10133000220F331F4A95E2F78695869540E2849FF7
:10134000C0011124822B932B9C680895AC0143703B
:10135000552721E030E002C0220F331F4A95E2F703
:101360008695869540E2849FC0011124822B932BA1
:101370009A680895982F882788279F71B2CF81E8AF
:1013800090E4089583E890E4089582EE94E408954B
:1013900089EE94E408958AEE94E4089585EB94E44C
:1013A000089586EB94E4089583EB94E4089584EB28
:1013B00094E4089587EB94E408958CEC94E4089504
:1013C0008DEC94E4089583E895E408958AE895E423
:1013D000089582E995E4089584E995E4089581E209
:1013E00096E4089583E296E4089584E296E40895ED
:1013F00085E296E4089586E296E4089587E296E40D
:1014000008958AE296E41CCF8238910549F1B0F440
:101410008133910509F45CC048F48932910509F4DF
:1014200052C08A32910509F458C008958533910558
:1014300009F444C08933910599F00895833E9105DC
:1014400031F138F4803E910591F0823E9105B1F082
:101450000895863E910511F1873E910541F1089569
:10146000209169022370C9F080EE90E008952091E8
:10147000690220FF12C089E390E00895209169027B
:1014800022FF0BC024FF2EC090E080E00895209141
:10149000690222FD2AC024FDF7CF08952091690238
:1014A00023FFFBCF24FDF0CF87EE90E0089520913D
:1014B000690223FFF0CF86EE90E008952091690243
:1014C00025FD16C008952091690225FD14C00895D8
:1014D0002091690226FD12C008952091690226FD1F
:1014E00010C0089583EE90E0089582EE90E0089594
:1014F00089E290E0089585E390E008958AE290E023
:10150000089581E390E0C9CF08950F931F93CF937F
:101510008C01FB018281811106C0C1E08C2FCF912B
:101520001F910F910895C0914F01C11125C0053140
:10153000104799F70E94840A81E080934F010E942E
:10154000EB1890934E0180934D011092420110923E
:1015500044011092430110924601109245011092ED
:1015600048011092470110924A01109249011092CD
:101570004C0110924B01D2CF80914D0190914E01C0
:101580000E94F718883C910540F680914201E82FAF
:10159000F0E0EE0FFF1FED5BFE4F118300838F5FC6
:1015A00080934201C0E0BACF0C9418070C9419073D
:1015B00085B7806885BF85B7806885BFA5E2B1E043
:1015C00061E070E08D91E82FE295EF70F0E041A1CD
:1015D0008F709B0101C0220F8A95EAF7922F909598
:1015E000942391A382A1822B82A381E0AA32B8071F
:1015F00049F7A3E1B1E061E070E08D91E82FE29559
:10160000EF70F0E041A18F709B0101C0220F8A951D
:10161000EAF7922F9095942391A382A1822B82A323
:1016200081E0A532B80749F7E4E6F1E0A0E5B1E0D2
:1016300088E791E011921192119211921D921D92E0
:101640001D921D928E179F07A9F70C946C082F927C
:101650003F924F925F926F927F928F929F92AF9242
:10166000BF92CF92DF92EF92FF920F931F93CF938F
:10167000DF93CDB7DEB72C970FB6F894DEBF0FBE61
:10168000CDBF80E5882E81E0982E25E231E03A83B7
:10169000298398868F8222242394312CC12CD12C2B
:1016A0007601C394AA24A394AF81B8854D905D9030
:1016B0006D907C901397FD0110821182128213822B
:1016C000A981BA818D91BA83A983E82FE295EF7041
:1016D000F0E091A18F70910102C0220F331F8A9513
:1016E000E2F73C832B83822F892B81A382A1B22E28
:1016F000B0948B2182A330EA3A95F1F743E151E0AF
:101700005E834D8390E080E0AD81BE813D91BE83DC
:10171000AD83A32FA295AF70B0E090960C91AF81EE
:10172000B8854D915D916D917C9149875A876B8702
:101730007C873F70A10102C0440F551F3A95E2F724
:101740009A01202309F081C0B701A601082E04C028
:10175000440F551F661F771F0A94D2F78A019B0119
:1017600049855A856B857C85402B512B622B732BC9
:10177000AF81B8854D935D936D937C9313970196DC
:101780008231910509F0C0CF81A1B822B1A282A116
:10179000BB818B2B82A3EF81F88580819181A2810F
:1017A000B381481659066A067B0641F0A09278017B
:1017B0000E94EB1890937A01809379012F813885EC
:1017C0002C5F3F4F38872F8349815A814A525140BD
:1017D00009F06ACF809178018823D9F0809179014E
:1017E00090917A010E94F718069798F0E4E6F1E0EC
:1017F00084E691E0D4014D915D916D917D914D0113
:1018000041935193619371938A179B0799F71092B3
:1018100078010E946E0881E02C960FB6F894DEBF26
:101820000FBECDBFDF91CF911F910F91FF90EF9031
:10183000DF90CF90BF90AF909F908F907F906F90F0
:101840005F904F903F902F90089500E010E0980136
:1018500087CF94E0899FF0011124EC59FE4F6081FD
:10186000718182819381089508959093800180937E
:101870007F010895E0917F01F0918001309721F080
:101880000190F081E02D099480E00895E0917F01BE
:10189000F0918001309721F00280F381E02D0994CE
:1018A0000895E0917F01F0918001309721F004804C
:1018B000F581E02D0994089520917D0130917E01FC
:1018C0002817390771F090937E0180937D01E09194
:1018D0007F01F0918001309721F00680F781E02DA3
:1018E0000994089520917B0130917C0128173907D4
:1018F00071F090937C0180937B01E0917F01F091E6
:101900008001309721F00084F185E02D099408953D
:1019100008950C94880C0E94E2180E94D80A0C9436
:10192000B2194F925F926F927F928F929F92AF9275
:10193000BF92DF92EF92FF920F931F93CF93DF93AB
:10194000CDB7DEB72A970FB6F894DEBF0FBECDBF76
:101950000E94270B22E8E22E21E0F22E10E000E0A8
:10196000D02E802F0E94290C4B015C01F701419081
:101970005190619071907F01481459046A047B046E
:1019800009F476C08091380281FD0E94340C90E009
:1019900080E0482459246A247B24B301A201082E44
:1019A00004C076956795579547950A94D2F740FFFE
:1019B0005AC08E83DF82412C512C3201439404C0E3
:1019C000440C551C661C771C8A95D2F78420952000
:1019D000A620B72081E089288A288B2809F480E096
:1019E00088870E94EB188160782F9A8789874E81BB
:1019F0005F8168858A850E94650D000F111F000FA9
:101A0000111FF801EE57FE4F80819181A281B381B1
:101A100084259525A625B72580839183A283B3834A
:101A20000E94361C0E943A0C909181018917B9F1ED
:101A30000E943A0C809381012A960FB6F894DEBF7B
:101A40000FBECDBFDF91CF911F910F91FF90EF900F
:101A5000DF90BF90AF909F908F907F906F905F903E
:101A60004F900C94720801968231910509F095CF40
:101A70000F5F1F4F0530110509F072CF8FEF89837B
:101A80008A831B820E94EB188160782F9D838C8350
:101A900049815A816B818D810E94650DC1CF2A9643
:101AA0000FB6F894DEBF0FBECDBFDF91CF911F916F
:101AB0000F91FF90EF90DF90BF90AF909F908F902D
:101AC0007F906F905F904F900895CF93DF93CDB745
:101AD000DEB72B970FB6F894DEBF0FBECDBF4F8396
:101AE000588769877A878B871E821D8285E0FE0171
:101AF0003796DE01119601900D928A95E1F74981A2
:101B00005A816B817C818D819E812B960FB6F894D2
:101B1000DEBF0FBECDBFDF91CF910C94E2138823BF
:101B200009F4D8C0823871F40E943A0C81FDD2C009
:101B300089E30E9437170E94FF1789E30E947417F8
:101B40000C94FF17833859F40E943A0C80FDC2C0F0
:101B500083E50E9437170E94FF1783E5EFCF843893
:101B600059F40E943A0C82FDB5C087E40E943717F1
:101B70000E94FF1787E4E2CF9CEF980F913A18F488
:101B80000E943717DDCF90E2980F983050F487709D
:101B900091E001C0990F8A95EAF7892F0E94B61744
:101BA000CFCF9BE5980F933070F4853A31F0863AA9
:101BB00039F083E890E00C945C0C81E890E0FBCF76
:101BC00082E890E0F8CF98E5980F953108F082C050
:101BD000883A09F440C0893A09F440C08A3A09F4C5
:101BE00040C08B3A09F440C08C3A09F440C08B3BAA
:101BF00009F440C08C3B09F440C08D3A09F440C060
:101C0000803B09F440C08E3A09F440C08F3A09F491
:101C100040C0813B09F440C0823B09F440C0833B93
:101C200009F440C0843B09F440C0853B09F440C03E
:101C3000863B09F440C0873B09F440C0883B09F467
:101C400040C0893B09F440C08A3B09F440C090E0A1
:101C500080E00C94720C82EE90E0FBCF89EE90E075
:101C6000F8CF8AEE90E0F5CF85EB90E0F2CF86EBEF
:101C700090E0EFCF83EB90E0ECCF84EB90E0E9CF06
:101C800087EB90E0E6CF8CEC90E0E3CF8DEC90E03A
:101C9000E0CF83E891E0DDCF8AE891E0DACF82E916
:101CA00091E0D7CF84E991E0D4CF81E292E0D1CF27
:101CB00083E292E0CECF84E292E0CBCF85E292E065
:101CC000C8CF86E292E0C5CF87E292E0C2CF8AE237
:101CD00092E0BFCF0895882309F44BC0823871F495
:101CE0000E943A0C81FF45C089E30E9437170E9489
:101CF000FF1789E30E9474170C94FF17833859F477
:101D00000E943A0C80FF35C083E50E9437170E947D
:101D1000FF1783E5EFCF843859F40E943A0C82FF15
:101D200028C087E40E9437170E94FF1787E4E2CF9C
:101D30009CEF980F913AF0F290E2980F983050F49F
:101D4000877091E001C0990F8A95EAF7892F0E9468
:101D5000BC17D2CF9BE5980F933020F490E080E041
:101D60000C945C0C885A853120F490E080E00C944F
:101D7000720C0895882321F00E94B6170C94FF1767
:101D80000895882321F00E94BC170C94FF17089532
:101D90008F929F92AF92BF92DF92EF92FF920F933A
:101DA0001F93CF93DF937C01D62FC72FFC010581B2
:101DB00002950F70128111110E94D5170E943017E1
:101DC000D82E882371F0112321F180E28D0F883005
:101DD00000F182E00E941A170E94301791E0D82E7D
:101DE000D926EC2FE295EF70F0E0E750F14F0C941C
:101DF00012250B0F0B0F5B0F5B0F9D0FB90F380FE9
:101E0000380FC40F380F5C105C10CF10380F380F2C
:101E1000D810D12CE6CF0C2F0F70C07F11F0029597
:101E2000007F1123A9F0002359F080E28D0F883044
:101E300010F0D11109C0802F0E94B6170E94FF1721
:101E40008D2F0E948F0D14C0802F0E94C717F6CFD0
:101E50008D2F0E946B0E002359F080E28D0F883089
:101E600010F0D11124C0802F0E94BC170E94FF17D0
:101E7000DD2009F4A4C10E940D1780FDA0C1F70167
:101E800012820E9407170E948115C7010E94EB1061
:101E90000E940717DF91CF911F910F91FF90EF9054
:101EA000DF90BF90AF909F908F900C94A215802FE1
:101EB0000E94CD17DBCFFC2FFF70BF2EC07FC0323A
:101EC00019F0B29480EFB822DD2369F0D13029F106
:101ED000112369F1002359F0F701858180FFB0CF0C
:101EE0008F70858304C0112361F0011104C08B2D14
:101EF0000E94BA0EBDCF8B2D0130D1F70E94E91799
:101F0000B7CF011106C00E94EC178B2D0E94C10EA5
:101F1000AFCF013009F4ACCFF6CF112321F006305A
:101F200008F0A6CFE4CF053008F0A2CFEECF002313
:101F300061F38D2F0E946B0E9BCF8C2F869586951B
:101F4000837069F0813009F093CF8D2F9C2F9370AF
:101F5000111102C090E080E00E94720C89CF8D2F99
:101F60009C2F9370111102C090E080E00E945C0CE5
:101F70007FCF8D2F112329F00E943F1B0E942B1C25
:101F800077CF0E94A71BFACF8C2F837009F047C030
:101F900011116ECF2D2F229526952770220F220F1B
:101FA0006D2F6F70862E912CB12CA12C022E04C0A7
:101FB000880C991CAA1CBB1C0A94D2F760E070E044
:101FC000CB01D4FF0FC06FE070E080E090E004C070
:101FD000660F771F881F991F2A95D2F76095709515
:101FE00080959095C695C695C370C23051F080F427
:101FF000682979298A299B29C13071F00E942A1504
:1020000037CF682979298A299B290E94461530CF24
:102010000E942A15C501B4010E940E1529CF86958C
:10202000112311F08C2F8170882309F421CF2D2FDB
:10203000229526952770220F220F6D2F6F70862E06
:10204000912CB12CA12C022E04C0880C991CAA1C26
:10205000BB1C0A94D2F760E070E0CB01D4FF0FC044
:102060006FE070E080E090E004C0660F771F881F8B
:10207000991F2A95D2F76095709580959095C69591
:10208000C695C370C23051F080F4682979298A2935
:102090009B29C13071F00E940416EACE6829792983
:1020A0008A299B290E942016E3CE0E940416C501AE
:1020B000B4010E94E815DCCEE0E2ED0FE53108F056
:1020C00062C0F0E0EA59FF4E0C9412257B107B10A1
:1020D0007B107B107B107B107B107B107B107B10A8
:1020E0007B107B107B107B107B107B108810961070
:1020F0009D10A410AE10DF708C2F8F71112321F072
:102100000E9481158D2FF4CE0E94A2158D2FFECE38
:10211000112341F0053008F0ABCE8C2F8F710E9457
:10212000C715A6CE063008F0A3CEF7CF8C2F8F713F
:10213000112339F00E9481159BCE8C2F8F711123B2
:10214000C9F30E94A21594CE112329F08C2F8F7110
:102150000E946C158DCE0E9462158ACE112349F023
:10216000CF718C2F0E94811563E08C2F0E94111774
:102170007FCE81E00E941A17023008F479CE82E007
:102180000E941A1775CE112329F0011159CE8C2FF8
:102190008F71D0CF0111CDCE8C2F8F71D2CF4C2F1C
:1021A0004F706D2FC7010E9415070E948B1460CEDF
:1021B0004C2F4F706D2FC7010E94740859CEDF91CC
:1021C000CF911F910F91FF90EF90DF90BF90AF9054
:1021D0009F908F9008950F931F93CF93DF93EC01FF
:1021E000988189812B813C81232B39F08F3F19F411
:1021F00081E09F3F19F080E001C081E080FD17C0C1
:10220000CE010E942E07882391F0688179818A810E
:102210000E94E3168C010E943C160E940315B8012F
:10222000CE01DF91CF911F910F910C94C80EDF91D9
:10223000CF911F910F9108950E94D5170E94E61724
:102240000E94A8170E94FF170E94D81C0E942B1CF6
:1022500090E080E00E945C0C90E080E00C94720CB6
:102260000E94C4170C941C110E94D916E92FE29504
:10227000EF70E250EE30E0F4F0E0EF5BFE4E0C94D5
:1022800012254F114F11581158115A115811581148
:1022900058114F114F115F11581158115F11803FA4
:1022A00019F020F4803E20F481E00895843FE1F3AA
:1022B00080E00895803EC0F3813FD1F7F5CF93FBD6
:1022C000882780F90895CF93DF9300D000D01F9224
:1022D000CDB7DEB70F900F900F900F900F90DF915A
:1022E000CF910895CF93DF9300D000D000D0CDB729
:1022F000DEB726960FB6F894DEBF0FBECDBFDF91D6
:10230000CF9108951F93CF93DF93C091970116E06B
:10231000809198018C1304C0DF91CF911F91089593
:10232000D0E01C9FF0011D9FF00D1124E756FE4FD9
:102330004081518162817381848195810E947211F3
:102340002196C770E5CF4091C9015091CA016091B3
:10235000CB017091CC018091CD019091CE010C9474
:1023600072111F93CF93DF938091CE01807FD1F4C0
:102370008091CB018823B1F080919701D091980191
:10238000B091C901C091CA014091CC015091CD01D9
:10239000A1E0BF3F09F0A0E0BA016095709516E09A
:1023A000D81304C0DF91CF911F91089521E041150A
:1023B000510521F02A2FCF3F09F020E090E020FDC9
:1023C00038C0189FF001199FF00D1124E756FE4FF9
:1023D00021812C132EC020812B132BC0228121118F
:1023E00028C0238134812417350700F1241B350BC5
:1023F000283C3105F0F42091CE012F70206120930C
:10240000CE0126E0289FF001299FF00D1124E2560D
:10241000FE4F80818F708061808389EC91E00E9403
:10242000EB10DF91CF911F910C948211260F371F73
:10243000DFCF01968770B4CFAF92BF92CF92DF9279
:10244000EF92FF920F931F93CF93DF93CDB7DEB739
:1024500061970FB6F894DEBF0FBECDBF8C0185E04B
:10246000F801DE011D9601900D928A95E1F7D801E1
:102470004C9111965C9111971296EC903091C90194
:102480006091CA018091CC019091CD0121E000972B
:1024900031F06F3F19F421E03F3F09F020E0B22F07
:1024A000B170BB2E20FD80C1F801C380D480A09004
:1024B000CB01AA2009F427C1C816D906D0F1D6014C
:1024C000A81BB90BCD01FF24F394883C910508F0BB
:1024D000F12C8091CE01982F907FFF2009F4CAC083
:1024E000911187C0FE2C651329C0341327C0E11059
:1024F00025C08F7080618093CE010E94A31189EC6A
:1025000091E00E94EB108091CE01F80185838F2D20
:1025100061960FB6F894DEBF0FBECDBFDF91CF91AD
:102520001F910F91FF90EF90DF90CF90BF90AF90F1
:102530000895809590958C0D9D1DC5CF81E0CD2887
:1025400031F05F3F19F481E04F3F09F080E080FDFA
:1025500024C081E08E25F82FF170DF2E80FF3FC070
:10256000809197012091980136E0821318C04D8721
:102570005E878D859E850E94D916292F22952F7002
:10258000223008F1243030F59F7009F1D8011596FA
:102590009C91907FE1F4FB2CBACF80E0DCCF90E0FF
:1025A000389FF001399FF00D1124E756FE4F6181ED
:1025B000561306C06081461303C062816E110FC0BE
:1025C00001968770D2CF9F7011F0882321F3805E2F
:1025D000883008F3C8010E94EB10BD2CDCCFEE2040
:1025E00009F495CF8091CE0181608093CE01F12CCA
:1025F0008ECF651312C0341310C0E1100EC0F80165
:102600008583C8010E94EB1086E0F801A9ECB1E0D7
:1026100001900D928A95E1F741C04D875E878D85C7
:102620009E850E943411882309F4C8C0EE2009F465
:10263000C5C08091CE01803270F02091C9013091E7
:10264000CA0138872F831986DB86CA868C87CE011C
:1026500007960E94EB1086E0F801A9ECB1E001902A
:102660000D928A95E1F70E94B1110E94A311FF24F7
:10267000F3944DCF911115C07C2DD98AC88A6E2D47
:1026800089890E94631189EC91E00E94EB1086E039
:10269000E9ECF1E0DF011D928A95E9F70E94A311B0
:1026A00036CF651312C0341310C0E1100EC0F8010C
:1026B0008583C8010E94EB10E9ECF1E086E0DF01C0
:1026C0001D928A95E9F7FA2C22CF4D875E878D857A
:1026D0009E850E943411882309F470C0EE2009F40D
:1026E0006DC08091CE01803208F4B5CF2091C90130
:1026F0003091CA013A8329831B82DD82CC828E838A
:10270000CE010196A6CFC816D90638F1F601E81B0E
:10271000F90BCF01F12C883C910508F03DC0FE2C4F
:10272000EE2009F44BC0651326C0341324C08091F9
:10273000CE0180FD17C0982F907FA1F0D80115968B
:102740008C931597903F09F45CCF982F907F905F02
:102750008F70892B15968C9354CF809590958C0D06
:102760009D1DD8CF86E0F801A9ECB1E001900D9253
:102770008A95E1F7CCCE4D875E878D859E850E9438
:102780003411811168CF8091CE0181608093CE0198
:10279000C8010E94EB10BBCE7C2DD98AC88A6E2D51
:1027A00089890E94631173CFEE2041F04D875E87C7
:1027B0008D859E850E94341181114DCFC8010E94E4
:1027C000EB1055CF1F93CF93DF93CDB7DEB72C9788
:1027D0000FB6F894DEBF0FBECDBF4F835887698711
:1027E0007A878B879C87CE0107960E941C128823CC
:1027F00009F442C09F8188852A853B85232B39F0C7
:102800008F3F19F481E09F3F19F080E001C081E023
:1028100080FD08C04F81588569857A858B859C85A8
:102820000E94721116E0809197019091980189178A
:1028300009F467C0819FC001112487569E4F0E94F2
:102840001C12882309F45DC0E09197011E9FF001DE
:102850001124E756FE4F408151816281738184814A
:1028600095810E9472118091970190E00196877086
:10287000992780939701D7CF86E0FE013796DE0136
:10288000119601900D928A95E1F79F8188852A859E
:102890003B85232B39F08F3F19F481E09F3F19F0DE
:1028A00080E001C081E080FDBDCF2091980130E043
:1028B000C901019687709927409197014817190619
:1028C00099F096E0929FD001939FB00D1124A756E6
:1028D000BE4FFE01319601900D929A95E1F78093DB
:1028E00098010E9482119ECF0E943011109298018F
:1028F0001092970186E0E9ECF1E0DF011D928A95E4
:10290000E9F72C960FB6F894DEBF0FBECDBFDF916E
:10291000CF911F910895EF92FF920F931F93CF9342
:10292000DF938C01892B81F0F12CEE24E394E801F4
:102930002196F8018491843770F4843008F05FC0E8
:102940008130B1F08230A1F1DF91CF911F910F91D1
:10295000FF90EF900895853709F44CC008F43DC00E
:102960009CE7980F903780F78F770E946B0E49C0D5
:102970000E5F1F4FFE01849190E2980F983060F433
:102980008770FE2D01C0FF0F8A95EAF78F2F0E94F6
:10299000D8170E94FF1702C00E948F0D8F2D815003
:1029A00030F2EFE9FFE03197F1F700C00000F7CF18
:1029B0000E5F1F4FFE01849190E2980F983050F403
:1029C0008770FE2D01C0FF0F8A95EAF78F2F0E94B6
:1029D000DE17DFCF0E946B0EE1CF0E5F1F4FFE01AF
:1029E000C491C150D8F28FE99FE00197F1F700C080
:1029F0000000F7CF0E5F1F4FFE01F490CFCF0E9473
:102A00008F0D8E01CBCF089560930F02709310024B
:102A100080931102909312020C941C110F931F9338
:102A200000910F02109110022091110230911202B8
:102A3000DC01CB01802B912BA22BB32B80930F02B7
:102A400090931002A0931102B09312021F910F9164
:102A50000C941C110F931F9300910F021091100200
:102A60002091110230911202DC01CB0180239123CD
:102A7000A223B32380930F0290931002A09311021C
:102A8000B09312021F910F910C941C110F931F937E
:102A900000910F0210911002209111023091120248
:102AA000DC01CB0180279127A227B32780930F0257
:102AB00090931002A0931102B09312021F910F91F4
:102AC0000C941C1110920B0210920C0210920D0229
:102AD00010920E020C941C1141E050E060E070E096
:102AE00004C0440F551F661F771F8A95D2F7409385
:102AF0000B0250930C0260930D0270930E020C9423
:102B00001C1141E050E060E070E004C0440F551F2C
:102B1000661F771F8A95D2F780910B0290910C0265
:102B2000A0910D02B0910E02842B952BA62BB72BF2
:102B300080930B0290930C02A0930D02B0930E02AF
:102B40000C941C1141E050E060E070E004C0440FC0
:102B5000551F661F771F8A95D2F74095509560954F
:102B6000709580910B0290910C02A0910D02B09192
:102B70000E0284239523A623B72380930B02909300
:102B80000C02A0930D02B0930E020C941C1141E0B4
:102B900050E060E070E004C0440F551F661F771FCF
:102BA0008A95D2F780910B0290910C02A0910D02B0
:102BB000B0910E0284279527A627B72780930B0292
:102BC00090930C02A0930D02B0930E020C941C1172
:102BD0000F931F9300910B0210910C0220910D0294
:102BE00030910E02DC01CB01802B912BA22BB32B59
:102BF00080930B0290930C02A0930D02B0930E02EF
:102C00001F910F910C941C110F931F9300910B02B5
:102C100010910C0220910D0230910E02DC01CB01CB
:102C200080239123A223B32380930B0290930C0261
:102C3000A0930D02B0930E021F910F910C941C11E2
:102C40000F931F9300910B0210910C0220910D0223
:102C500030910E02DC01CB0180279127A227B327F8
:102C600080930B0290930C02A0930D02B0930E027E
:102C70001F910F910C941C11089522E1929F800DD9
:102C80001124982F977071E001C0770F9A95EAF799
:102C900086958695869525E0829FC001112450E097
:102CA00040E0A62FB0E0FC01E40FF51FE153FE4F1A
:102CB00060819D01042E02C0369527950A94E2F7A3
:102CC0002170219526272723262720834F5F5F4FDA
:102CD0004530510541F7089522E1929F800D11245E
:102CE000982F977086958695869525E0829FA001FE
:102CF000112470E060E080E0FA01E60FF71FE15375
:102D0000FE4F208130E0092E02C0369527950A94A7
:102D1000E2F721703327062E01C0220F0A94EAF74A
:102D2000822B6F5F7F4F6530710531F70895BF9239
:102D3000CF92DF92EF92FF920F931F93CF93DF9387
:102D40008C01C0900B02D0900C02E0900D02F0902C
:102D50000E0280910F0290911002A0911102B09189
:102D60001202C82AD92AEA2AFB2ACFE1D0E0BC2ED7
:102D7000D701C6010C2E04C0B695A79597958795E7
:102D80000A94D2F780FD0EC0219788F7B12C8B2DC5
:102D9000DF91CF911F910F91FF90EF90DF90CF9037
:102DA000BF900895B8018C2F0E949108019761F39C
:102DB000EECFCF93DF93EC010E949716BE01DF9117
:102DC000CF910C9491081F93CF93DF93EB019091D7
:102DD0009601992331F0CB01DF91CF911F910C9493
:102DE000D916882379F0CB010E949716182F682FE7
:102DF000CE010E943D16BE01812FDF91CF911F9120
:102E00000C949108CB010E946C16182FF4CF80917E
:102E10001302859585958595089580911302877095
:102E2000089598E0899F90011124622B609313020A
:102E30000C9481159091130280958923809313023D
:102E4000282F277061F4282F082E000C330B9217BF
:102E5000130629F08595859585950C94A2150895FE
:102E600090911302977081E009F480E008959091A9
:102E700012019923E1F09091690297FF18C0E82FA1
:102E8000E695E695E695EF3139F120910001309114
:102E90000101E20FF32FF11D877021E030E001C046
:102EA000220F8A95EAF78181822B818308952091F0
:102EB000000130910101F90132969FEF40E05191FC
:102EC000851751F09F3F19F4511101C0942F4F5FA6
:102ED0004E31A9F79F3F09F40895290F311D97FD41
:102EE0003A95F90182830895909112019923F1F0A6
:102EF0009091690297FF1AC0E82FE695E695E6954E
:102F0000EF3129F12091000130910101E20FF32FFF
:102F1000F11D282F277081E090E001C0880F2A95CD
:102F2000EAF780959181892381830895209100019A
:102F300030910101F9013296205E3F4F9191891342
:102F400003C0DF0111971C92E217F307B9F7089548
:102F500081E090E0E0910001F0910101E80FF91F9C
:102F60001082019680329105A9F708959091370259
:102F7000892B809337020895982F9095809137027E
:102F80008923809337020895109237020895909113
:102F90003602892B809336020895982F9095809160
:102FA00036028923809336020895109236020895DE
:102FB00090913502892B809335020895982F909532
:102FC000809135028923809335020895109235024D
:102FD0000895809314020895109214020895209188
:102FE000000130910101F9013196205E3F4F80E0F0
:102FF000919191118F5FE217F307D1F70895E09156
:103000000001F0910101809137028083E09100017D
:10301000F0910101808190913602892B8083E091AB
:103020000001F0910101808190913502892B80830C
:1030300090911402992361F0E0910001F091010157
:103040008081892B80830E94EF17811110921402D6
:1030500080910001909101010C94460C6DEE7EEF81
:1030600090E080E00E944C2560E082E090E00E94C9
:103070003A2560E083E090E00E943A2560E084E039
:1030800090E00E943A2560E085E090E00C943A25BB
:1030900090E080E00E94342521E08D3E9E4F09F0B3
:1030A00020E0822F089582E090E00C942C25682F78
:1030B00082E090E00C943A2583E090E00C942C257B
:1030C000682F83E090E00C943A2584E090E00C9423
:1030D0002C25682F84E090E00C943A2580916F02B3
:1030E000843039F11092390288E190E020E40FB683
:1030F000F894A895809360000FBE2093600080E054
:103100000E94720883B7817F846083BF83B7816028
:1031100083BF7894889583B78E7F83BF0FB6F8946A
:10312000A895809160008861809360001092600093
:103130000FBE089508950895CF930E949A180E9493
:10314000270B0E949B18C0E08C2F0E94290C672B34
:10315000682B692B31F4CF5FC530B1F780E0CF9198
:10316000089581E0FCCF0E9430110E943A0C0C942B
:1031700072081F920F920FB60F9211248F939F9394
:10318000AF93BF9380913902811113C08091650282
:1031900090916602A0916702B09168024196A11DCC
:1031A000B11D8093650290936602A0936702B0936D
:1031B0006802BF91AF919F918F910F900FBE0F90BA
:1031C0001F90189582E084BD93E095BD9AEF97BD5E
:1031D00080936E0008952FB7F894809165029091C6
:1031E0006602A0916702B09168022FBF0895CF9246
:1031F000DF92EF92FF920F931F932FB7F8944091B5
:1032000065025091660260916702709168022FBF5B
:103210006A017B01EE24FF248C0130E020E0C0161F
:10322000D106E206F30650F0481B590BCA011F9164
:103230000F91FF90EF90DF90CF900895415051098A
:10324000F3CF1F920F920FB60F9211248F939F937B
:10325000AF93BF938091650290916602A09167023F
:10326000B09168020196A11DB11D809365029093F3
:103270006602A0936702B0936802BF91AF919F91DD
:103280008F910F900FBE0F901F9018950E94D22023
:10329000F8942FEF87EA91E6215080409040E1F7C3
:1032A00000C0000087E090EBDC01809378029093EF
:1032B0007902A0937A02B0937B0288E19CE00FB67A
:1032C000F894A895809360000FBE90936000FFCFA4
:1032D0008F929F92AF92BF92EF92FF920F931F93A4
:1032E000CF93C0E0E82EF12C8C2F0E94290C4B01CB
:1032F0005C0110E000E0D501C401002E04C0B695C9
:10330000A795979587950A94D2F780FD13C00F5F14
:103310001F4F0231110579F7CF5FC53029F780E0E3
:10332000CF911F910F91FF90EF90BF90AF909F9022
:103330008F900895602F7C2F80E00E947508E8161A
:10334000F90629F781E0ECCFCF93C82F8CE20E94D9
:103350006819882321F08C2FCF910C94681980E094
:10336000CF910895CF930E944818811102C00E9406
:103370002E18C5E6C15009F0D1C089E20E94A419F7
:103380008111F8C08AE20E94A41981110E942E18AE
:1033900085E00E94A41981110E9446190E945318C9
:1033A0008093380287E00E94A419882371F08BE192
:1033B0000E94A419882309F4BAC090913802892F79
:1033C0008D7F91FF826080933802809138020E9445
:1033D00057180E94651890E090936A0280936902E2
:1033E00080EE0E94A419882341F090916902892FF0
:1033F0008E7F90FF81608093690289E30E94A41907
:10340000882341F090916902892F8D7F91FF82601E
:103410008093690282EE0E94A419882341F0909162
:103420006902892F8B7F92FF84608093690286EE08
:103430000E94A419882341F090916902892F877F07
:1034400093FF88608093690283EE0E94A419882309
:1034500041F090916902892F8F7E94FF8061809363
:10346000690285E30E94A419882341F090916902C2
:10347000892F8F7D95FF80628093690281E30E948E
:10348000A419882341F090916902892F8F7B96FFC0
:1034900080648093690281E10E94A419882341F02D
:1034A00090916902892F97FB87F980588093690270
:1034B000809169020E94691887E20E94A419C82FAE
:1034C0008EE10E94A4198111C2608FE10E94A419AB
:1034D0008111C46080E20E94A4198111C86081E258
:1034E0000E94A4198111C06182E20E94A419811175
:1034F000C06283E20E94A4198111C06484E20E9428
:10350000A419882389F1C0688C2F0E9460186C2F41
:1035100070E090E080E0CF910C9404150E94270B9E
:103520008FE39CE90197F1F700C0000023CF8EE004
:103530000E94A419882339F090913802892F8B7F3B
:1035400092FF846040CF80E10E94A41990913802DC
:10355000882329F0892F877F93FF886034CF892FB4
:103560008E7F90FF81602FCFC111CECF0E945C185B
:10357000682FCECFCF91089580913C0280FF12C07A
:103580006091050185E0689FB001112475956795EC
:103590007595679560387105A8F561157105A1F1FC
:1035A000862F089581FF09C06091050185E0689F1D
:1035B000B001112475956795EDCF82FF07C060912A
:1035C000050185E0689FB0011124E4CF20913D0200
:1035D0002223A9F0909104016091050185E0689F84
:1035E000B00111242917B0F6269FA001279F500D86
:1035F0001124692F70E0CA010E94FE24CBCF65E040
:1036000070E0CECF8FE7089581E0089580913C026D
:1036100080FF0CC06091030170E07595679575950A
:1036200067956115710549F1862F089581FF06C0E0
:103630006091030170E075956795F3CF6091030188
:1036400082FD0BC090913D029923A1F0609102018F
:1036500080910301961738F0682F70E0603871058B
:1036600000F38FE70895899FC001112470E00E9444
:10367000FE24F4CF61E070E0D7CF81E00895803F71
:1036800031F40E94BC1A8195809340020895813FD5
:1036900019F40E94BC1AF8CF823F31F40E94BC1A80
:1036A000819580933F020895833F19F40E94BC1ACC
:1036B000F8CF893F29F40E94061B809341020895A8
:1036C0008A3F21F40E94061B8195F7CF8B3F31F48E
:1036D0000E94061B81958093420208958C3F19F445
:1036E0000E94061BF8CF843F31F480913E02816036
:1036F00080933E020895853F21F480913E028260CE
:10370000F7CF863F21F480913E028460F1CF873F5E
:1037100021F480913E028860EBCF883F21F48091B4
:103720003E028061E5CF8D3F31F480913C028160A3
:1037300080933C0208958E3F21F480913C02826088
:10374000F7CF8F3FB9F780913C028460F1CF803F83
:10375000C1F48091400287FD1092400280913F02A7
:1037600081110EC08091400281110AC080914102F6
:10377000811106C080914202811102C010923D0267
:103780000895813F29F48091400218162CF3E6CF6A
:1037900090913F02823F29F497FFE0CF10923F02C1
:1037A000DDCF833F19F41916CCF3D8CF893F39F414
:1037B00080914102181694F610924102CFCF8A3FB1
:1037C00029F48091410287FFC9CFF6CF8B3F39F4AE
:1037D0008091420287FFC2CF10924202BFCF8C3F3E
:1037E00029F4809142021816BCF3B8CF843F31F41B
:1037F00080913E028E7F80933E02B0CF853F21F4C0
:1038000080913E028D7FF7CF863F21F480913E026A
:103810008B7FF1CF873F21F480913E02877FEBCFF2
:10382000883F21F480913E028F7EE5CF8D3F31F4B9
:1038300080913C028E7F80933C0290CF8E3F21F49A
:1038400080913C028D7FF7CF8F3F09F087CF809129
:103850003C028B7FF0CF8EE392E00E94510C0E94DD
:10386000EB1890933B0280933A0208951F93CF93F5
:10387000DF9380913A0290913B020E94F718AC01CD
:1038800090913D022091060130E0911106C02091F7
:1038900007018AE0289F900111244217530780F006
:1038A00080913F02C091400210914102D0914202AA
:1038B00081110AC0C11178C0111176C0D11174C034
:1038C000DF91CF911F9108959F3F19F09F5F9093D3
:1038D0003D02181624F40E94BC1A80933F02809186
:1038E0003F0287FF05C00E94BC1A819580933F026A
:1038F0001C1624F40E94BC1A80934002809140025E
:1039000087FF05C00E94BC1A819580934002609198
:103910003F02662331F1C0914002CC2311F1062E03
:10392000000C770B880B990B0E94052423E333E3EB
:1039300043E35FE30E9469240E94CD2360933F022A
:103940006C2FCC0F770B880B990B0E94052423E377
:1039500033E343E35FE30E9469240E94CD23609335
:103960004002111624F40E94061B809341028091AC
:10397000410287FF05C00E94061B8195809341028A
:103980001D1624F40E94061B80934202809142027D
:1039900087FF05C00E94061B819580934202DF913C
:1039A000CF911F910C942B1C9F3F09F08FCFA0CF7C
:1039B00085E0EEE3F2E0DF011D928A95E9F71092CF
:1039C0003D0210923C020895809163020895CF93C6
:1039D000DF9300D01F92CDB7DEB79C0180916F02BC
:1039E000843019F593E099833B832A839093E9000F
:1039F0008FEF9091E800815095FD06C095ED9A9566
:103A0000F1F700008111F5CF8091E80085FF0DC02E
:103A100050E040E063E070E0CE0101960E94421F5A
:103A20008091E8008E778093E8000F900F900F90C0
:103A3000DF91CF910895CF93DF9300D01F92CDB740
:103A4000DEB720916F02243031F522E029838058BF
:103A500091099B838A8383E08093E9008FEF9091A3
:103A6000E800815095FD06C095ED9A95F1F70000AC
:103A70008111F5CF8091E80085FF0DC050E040E056
:103A800063E070E0CE0101960E94421F8091E80041
:103A90008E778093E8000F900F900F90DF91CF9179
:103AA00008959C0180916F028430F9F482E0809344
:103AB000E9009FEF8091E800915085FD06C085EDFB
:103AC0008A95F1F700009111F5CF8091E80085FF0C
:103AD0000CC050E040E065E070E0C9010E94421F68
:103AE0008091E8008E778093E8000895CF93DF936C
:103AF000EC0180916F028430F1F4909112019923CE
:103B0000E9F09091690297FF19C08093E9008FEF67
:103B10009091E800815095FD06C095E19A95F1F7E6
:103B200000008111F5CF8091E80050E040E060E2B4
:103B300070E085FD1AC0DF91CF91089581E08093F8
:103B4000E9008FEF9091E800815095FD06C095ED5A
:103B50009A95F1F700008111F5CF8091E80085FF7B
:103B6000EACF50E040E068E070E0CE010E94421FE2
:103B70008091E8008E778093E80080E2FE01A3E464
:103B8000B2E001900D928A95E1F7D5CF80916E0257
:103B9000811109C00E94D2200E942F218091E20051
:103BA00084608093E200089510926E020895089553
:103BB00008950C94B31842E061EC81E00E9450201B
:103BC00042E061EC82E00E94502042E061EC83E040
:103BD0000E94502042E261EC84E00C9450208091DD
:103BE0007102833009F455C030F4813071F18230B4
:103BF00009F491C008958A3009F47DC08B3009F42E
:103C000063C0893009F044C080917002813209F0AC
:103C10003FC08091740290917502009711F0039754
:103C2000B9F58091E800877F8093E8008091E800F3
:103C300082FF2AC08091F100809363028091E800A6
:103C40008B778093E8000C94842080917002813AF5
:103C5000F9F48091E800877F8093E80080917402F6
:103C600090917502892B61F460E283E492E070E048
:103C70000E94911F8091E8008B778093E80008955F
:103C800060E090E080E0F3CF80916F028111CECFB1
:103C9000089580917002813AD9F7809174029091D1
:103CA0007502892BA9F78091E800877F8093E8004F
:103CB0008091E80080FFFCCF809112018093F10099
:103CC0008091E8008E77BDCF80917002813201F73C
:103CD0008091740290917502892BD1F68091E80051
:103CE000877F8093E8000E948420809172028093F5
:103CF00012010C94301180917002813249F680914A
:103D0000E800877F8093E8000E94842080917302FE
:103D100080936402089580917002813A09F0B8CFCF
:103D20008091E800877F8093E8008091E80080FF21
:103D3000FCCF80916402C2CF84B7877F84BF0FB667
:103D4000F894A8958091600088618093600010923B
:103D500060000FBE80E880936100109261000E94B5
:103D6000890C0E94D2200E942F218091E200846061
:103D70008093E20078940E94B1230E948B0C88E02B
:103D800091E00E94350C80916F02853019F00E94FD
:103D9000910CF9CF0E946E1880916D02882399F3DF
:103DA0000E949C18882379F30E942C1FECCF292FA6
:103DB00033272330310579F158F421303105F1F002
:103DC0002230310519F190E080E030E020E01AC0A7
:103DD0002132310599F122323105A9F7643098F783
:103DE00070E0FB01EE0FFF1FE25DFE4F208131818D
:103DF000665D7E4FFB01808190E004C082E190E02F
:103E000029E83CE0FA013183208308958DE690E0B3
:103E10002CE13CE0F7CF99278130910561F028F043
:103E2000029789F6ECEEFBE002C0E8E1FCE0849149
:103E300090E09F01E7CFE0E0FCE0F9CF643008F0CC
:103E4000C2CFE62FF0E0EE0FFF1FEA5CFE4F2081AD
:103E5000318189E090E0D6CF80E189BD82E189BDE2
:103E600009B400FEFDCF8091D8008F7D8093D800EB
:103E70008091E00082608093E0008091E00081FD0D
:103E8000FCCF0895AF92BF92CF92DF92FF920F9333
:103E90001F93CF93DF936C01EB018A010E94A32053
:103EA000F82E811123C00115110539F0F801808128
:103EB0009181C81BD90BC80ED91EB12CA12C2097FB
:103EC000A9F08091E80085FD22C08091E8008E77FE
:103ED0008093E80001151105A1F0F801808191811E
:103EE000A80EB91EB182A08285E0F82E8F2DDF9139
:103EF000CF911F910F91FF90DF90CF90BF90AF9027
:103F000008950E94A3208823D1F2F82EEFCFF60166
:103F100081916F018093F1002197FFEFAF1ABF0AE3
:103F2000CECFFC0180917602909177028617970799
:103F3000A0F06115710529F49091E8009E779093A7
:103F4000E80090E06115710551F4911108C080916D
:103F5000E80082FF35C080E00895BC01F2CF809177
:103F60006F028823C9F18530C9F18091E80083FD93
:103F700031C08091E80082FDEACF8091E80080FFA7
:103F8000E1CF2091F3008091F200322F282F6115AC
:103F9000710519F02830310558F091E028303105CD
:103FA00009F090E02091E8002E772093E800CACF36
:103FB00081918093F100615071092F5F3F4FE7CFEE
:103FC00080916F02882341F0853041F08091E800B4
:103FD00083FFBDCF81E0089582E0089583E00895D6
:103FE000FC01809176029091770286179707A0F0E6
:103FF0006115710529F48091E8008E778093E800BF
:1040000090E06115710551F4911108C08091E800AC
:1040100082FF36C080E00895BC01F2CF80916F022C
:104020008823D1F18530D1F18091E80083FD32C041
:104030008091E80082FDEACF8091E80080FFE1CF27
:104040002091F3008091F200322F282F6115710525
:1040500019F02830310558F091E02830310509F089
:1040600090E08091E8008E778093E800CACF849139
:104070008093F1003196615071092F5F3F4FE6CF79
:1040800080916F02882341F0853041F08091E800F3
:1040900083FFBCCF81E0089582E0089583E0089516
:1040A000982F973028F08F708093E90081E0089571
:1040B0009093E900242F762F50E0981731F07091FB
:1040C000EC002091ED005091F00021FD02C09F5FB7
:1040D000E8CF3091EB003E7F3093EB003091ED0064
:1040E0003D7F3093ED003091EB0031603093EB0079
:1040F0007093EC002093ED005093F0002091EE00BF
:1041000027FDE5CF80E008958091700287FF13C0FE
:104110008091E80082FF06C08091E8008B77809351
:10412000E80004C080916F028111F2CF0895809160
:104130006F028823D9F38091E80080FFF8CF809147
:10414000E8008E77ECCF2091E4003091E50085E621
:104150009091EC0090FF06C09091E80090FF06C09F
:1041600080E008959091E80092FDFACF90916F025F
:10417000992391F0953091F09091EB0095FD10C04E
:104180004091E4005091E5002417350709F3815070
:104190009A01F1F684E0089582E0089583E008959D
:1041A00081E008950E9440210E944821E0EEF0E065
:1041B000808181608083E8EDF0E080818F7780836B
:1041C00019BCA7EDB0E08C918E7F8C9380818F7E9F
:1041D000808310926E0208950F931F93CF93DF9305
:1041E0000E9440210E944821C8EDD0E088818F774D
:1041F000888388818068888388818F7D888319BCC3
:1042000010926F0210926B0210926D0210926C026B
:1042100000EE10E0F80180818B7F808388818160CF
:10422000888342E060E080E00E945020E1EEF0E010
:1042300080818E7F8083E2EEF0E0808181608083E8
:10424000808188608083F80180818E7F808388816F
:1042500080618883DF91CF911F910F910895E8EDE0
:10426000F0E080818F7E8083E7EDF0E080818160E7
:10427000808384E082BF81E080936E020C94EC2006
:10428000E8EDF0E080818E7F80831092E200089557
:104290001092DA001092E10008951F920F920FB66B
:1042A0000F9211242F933F934F935F936F937F93BC
:1042B0008F939F93AF93BF93EF93FF938091E10010
:1042C00082FF0BC08091E20082FF07C08091E10075
:1042D0008B7F8093E1000E94B0238091DA0080FF01
:1042E00019C08091D80080FF15C08091DA008E7FC0
:1042F0008093DA008091D90080FF94C080E189BD6D
:1043000082E189BD09B400FEFDCF81E080936F0298
:104310000E94C61D8091E10080FF19C08091E200DB
:1043200080FF15C08091E2008E7F8093E200809133
:10433000E20080618093E2008091D80080628093E7
:10434000D80019BC85E080936F020E94D81D80912F
:10435000E10084FF29C08091E20084FF25C080E154
:1043600089BD82E189BD09B400FEFDCF8091D800EE
:104370008F7D8093D8008091E1008F7E8093E10053
:104380008091E2008F7E8093E2008091E200816064
:104390008093E20080916B02882309F449C084E095
:1043A00080936F020E94D91D8091E10083FF29C094
:1043B0008091E20083FF25C08091E100877F809398
:1043C000E10082E080936F0210926B028091E10025
:1043D0008E7F8093E1008091E2008E7F8093E200E7
:1043E0008091E20080618093E20042E060E080E042
:1043F0000E9450208091F00088608093F0000E941D
:10440000D71DFF91EF91BF91AF919F918F917F91B8
:104410006F915F914F913F912F910F900FBE0F9031
:104420001F90189519BC10926F020E94D41D72CF74
:104430008091E30087FD02C081E0B2CF83E0B0CF7E
:104440001F920F920FB60F9211242F933F934F9309
:104450005F936F937F938F939F93AF93BF93CF930C
:10446000EF93FF93C091E900CF708091EC00109220
:10447000E9008091F000877F8093F00078940E949B
:104480005C221092E9008091F00088608093F00037
:10449000C093E900FF91EF91CF91BF91AF919F91B0
:1044A0008F917F916F915F914F913F912F910F90DD
:1044B0000FBE0F901F9018951F93CF93DF93CDB72A
:1044C000DEB7AA970FB6F894DEBF0FBECDBFE0E708
:1044D000F2E08091F100819322E0E837F207C9F71A
:1044E0000E94EF1D8091E80083FF42C0809170021E
:1044F000909171029A3008F03BC0E92FF0E0ED573F
:10450000FD4D0C9412258D22B122B822B122B82281
:104510000C232E23B82283239023803879F082380D
:1045200039F5809174028F708093E9008091EB00DF
:1045300085FB882780F91092E90006C080916C0203
:1045400090916D02911182609091E800977F909315
:10455000E8008093F1001092F1008091E8008E77DE
:104560002DC0282F2D7F21F48823D1F0823059F1DE
:104570008091E80083FF0AC08091E800877F8093E4
:10458000E8008091EB0080628093EB00AA960FB662
:10459000F894DEBF0FBECDBFDF91CF911F9108957C
:1045A00080917202813021F7933009F080E080938E
:1045B0006D021092E9008091E800877F8093E80007
:1045C0000E948420D5CF809172028111F2CF809118
:1045D00074028F7069F28093E9002091EB0020FF54
:1045E000E8CF933031F48091EB0080628093EB0050
:1045F000E0CF9091EB0090619093EB0021E030E0F0
:1046000001C0220F8A95EAF72093EA001092EA008F
:104610008091EB008860EACF8111AACF10917202DD
:104620001F778091E3008078812B8093E300809155
:10463000E800877F8093E8000E9484208091E80052
:1046400080FFFCCF8091E30080688093E30083E0EB
:10465000111101C082E080936F028ACF80588230AE
:1046600008F086CF80917202909173028C3D23E016
:104670009207A1F583E08A838AE289834FB7F89491
:10468000DE01139620E03EE051E2E32FF0E050938C
:104690005700E49120FF03C0E295EF703F5FEF7099
:1046A0008E2F90E0EA30C0F0C7968D939D932F5FD8
:1046B000243159F74FBF8091E800877F8093E8004D
:1046C0006AE270E0CE0101960E94911F8091E8009D
:1046D0008B778093E8004CCFC096E7CFAE014F5F59
:1046E0005F4F609174020E94D71EBC01892B09F4B0
:1046F0003FCF9091E800977F9093E80089819A815D
:104700000E94F01FE3CF803809F032CF8091E8009B
:10471000877F8093E80080916B028093F1001DCF2A
:10472000811126CF90917202923008F021CF8091B2
:10473000E800877F8093E80090936B020E948420BA
:1047400080916B02882331F084E080936F020E9495
:10475000DB1D0ECF8091E30087FDF6CF81E0F5CF22
:104760000895CF9380916F02882399F0C091E9005A
:10477000CF708091EC0080FD0EC080E0C82B1092BD
:10478000E9008091E80083FD0E945C22CF70C09315
:10479000E900CF91089580E8F1CF0E94D423689476
:1047A000B1110C94632408950E94482488F09F5707
:1047B00098F0B92F9927B751B0F0E1F0660F771F45
:1047C000881F991F1AF0BA95C9F714C0B13091F03B
:1047D0000E946224B1E008950C946224672F782F20
:1047E0008827B85F39F0B93FCCF386957795679500
:1047F000B395D9F73EF490958095709561957F4F6C
:104800008F4F9F4F0895E89409C097FB3EF4909511
:104810008095709561957F4F8F4F9F4F9923A9F099
:10482000F92F96E9BB279395F69587957795679528
:10483000B795F111F8CFFAF4BB0F11F460FF1BC06C
:104840006F5F7F4F8F4F9F4F16C0882311F096E9FF
:1048500011C0772321F09EE8872F762F05C06623AD
:1048600071F096E8862F70E060E02AF09A95660F66
:10487000771F881FDAF7880F9695879597F908951F
:1048800057FD9058440F551F59F05F3F71F0479501
:10489000880F97FB991F61F09F3F79F087950895E6
:1048A000121613061406551FF2CF4695F1DF08C005
:1048B000161617061806991FF1CF86957105610522
:1048C00008940895E894BB2766277727CB0197F9CA
:1048D00008950E947C240C94ED240E94DF2438F07B
:1048E0000E94E62420F0952311F00C94D6240C9419
:1048F000DC2411240C9463240E94402470F3959FBF
:10490000C1F3950F50E0551F629FF001729FBB27C6
:10491000F00DB11D639FAA27F00DB11DAA1F649F62
:104920006627B00DA11D661F829F2227B00DA11D15
:10493000621F739FB00DA11D621F839FA00D611D9B
:10494000221F749F3327A00D611D231F849F600DBC
:10495000211D822F762F6A2F11249F5750409AF0E5
:10496000F1F088234AF0EE0FFF1FBB1F661F771F71
:10497000881F91505040A9F79E3F510580F00C943C
:10498000D6240C9463245F3FE4F3983ED4F38695D9
:1049900077956795B795F795E7959F5FC1F7FE2BDC
:1049A000880F911D9695879597F9089597F99F67B8
:1049B00080E870E060E008959FEF80EC08950024A7
:1049C0000A941616170618060906089500240A9474
:1049D00012161306140605060895092E0394000CFA
:1049E00011F4882352F0BB0F40F4BF2B11F460FF89
:1049F00004C06F5F7F4F8F4F9F4F089597FB072E27
:104A000016F4009407D077FD09D00E94182507FC02
:104A100005D03EF4909581959F4F089570956195CE
:104A20007F4F0895EE0FFF1F0590F491E02D09943C
:104A3000AA1BBB1B51E107C0AA1FBB1FA617B707C4
:104A400010F0A61BB70B881F991F5A95A9F78095E0
:104A50009095BC01CD010895F999FECF92BD81BD1D
:104A6000F89A992780B50895A8E1B0E042E050E0B7
:104A70000C945425262FF999FECF92BD81BDF89A4A
:104A8000019700B4021639F01FBA20BD0FB6F89492
:104A9000FA9AF99A0FBE08950196272F0E943B2596
:104AA0000C943A25DC01CB01FC01F999FECF06C03C
:104AB000F2BDE1BDF89A319600B40D9241505040DC
:084AC000B8F70895F894FFCF48
:104AC80015022808140A321EE41C761D511D1B1DF0
:104AD800E71C01F0F1F4F5F6F73635349097969423
:104AE80095676693923031323337404D3639570DDA
:0E4AF8000A0DD40C9B0C2E0C470C600C790C94
:00000001FF
